:100000000A128A11FC2F00308A000408840A820731
:100010000034483465346C346C346F3420345734D5
:0C0020006F3472346C34643421340034CA
:100E7400F200831203138810720886000A128A1182
:100E84006F270800F2008312031388147208860087
:100E94000A128A116F27080001300A128A113A27B0
:100EA4000A128A110D30F400FB30F300F30B582FB3
:100EB400F40B582F5D2F08000A128A11A4270A1276
:100EC4008A110A128A114E270A128A1101300A1253
:100ED4008A1188270A128A116E2F831203130814A9
:100EE4000430F1003D30F000F00B762FF10B762F3B
:100EF4007B2F8312031308100430F1003D30F000FF
:100F0400F00B822FF10B822F872F0800F400740856
:100F140084000A128A1103200A128A11003A031962
:100F24000800740884000A128A1103200A128A1124
:100F34000A128A1144270A128A110130F300730835
:100F4400F407892F8312031308108810860183166F
:100F540003130810881086010230F5000430F400F1
:100F6400BA30F300F30BB42FF40BB42FF50BB42FFA
:100F7400000030300A128A113A270A128A112730E7
:100F8400F400F530F300F30BC52FF40BC52F30300C
:100F94000A128A113A270A128A11D630F300D22F84
:100FA400D32FF30BD12F000030300A128A113A27C5
:100FB4000A128A110D30F400FB30F300F30BE02F1A
:100FC400F40BE02FE52F38300A128A113A270A125F
:100FD4008A110C300A128A113A270A128A11013036
:100FE4000A128A113A270A128A1106300A128A1141
:0C0FF4003A27080083010A128A115E2FC0
:02400E00723FFF
:00000001FF
