:040000009DEF04F07C
:100600000057414954494E4720464F5220544558BF
:10061000540D0A0063686172206973203D20000058
:100620000FC013F010C014F011C015F012C016F076
:10063000060ED8901336143615361636E82EF9D72E
:10064000131E141E151E161E132A000E1422152228
:100650001622000E1324016E120E1420026E7A0E62
:100660001520036E000E1620046E0FC017F010C088
:1006700018F011C019F012C01AF0060ED8901736F3
:10068000183619361A36E82EF9D717C005F018C0F3
:1006900006F019C007F01AC008F0A6EC03F001C07C
:1006A0001BF002C01CF01C04D8A044D00FC013F0F3
:1006B00010C014F011C015F012C016F0040ED8903E
:1006C0001336143615361636E82EF9D7131E141EB7
:1006D000151E161E132A000E142215221622000EB5
:1006E0001324016E120E1420026E7A0E1520036E72
:1006F000000E1620046E0FC017F010C018F011C0C5
:1007000019F012C01AF0040ED890173618361936A0
:100710001A36E82EF9D717C005F018C006F019C030
:1007200007F01AC008F0A6EC03F001C01BF002C0ED
:100730001CF0AC841C04D8B012001BC0AFFFAC98F6
:10074000AB8E948E948CAB88AC8A1200000E0A6E2D
:1007500008AE0AD0081E071E061E056C000E0622F3
:1007600007220822010E0A6E04AE0AD0041E031EE0
:10077000021E016C000E022203220422010E0A1A3C
:10078000000E0B6E000E0C6E000E0D6E000E0E6E47
:100790000550061007100810D8B42AD0010E096EB3
:1007A00006D0D8900536063607360836092A08AE30
:1007B000F8D7D8900B360C360D360E360550015C46
:1007C000065002580750035808500458D8A009D0C2
:1007D0000550015E0650025A0750035A0850045A49
:1007E0000B80D8900832073206320532092EE1D745
:1007F0000A50D8B408D00E1E0D1E0C1E0B6C000E35
:100800000C220D220E220BC001F00CC002F00DC014
:1008100003F00EC004F012009368F19E800E0F6E7C
:10082000250E106E000E116E000E126E10EC03F00D
:10083000010E026E060E036E47EC04F01F0E016EF1
:10084000000E026E000E046E050E036E80EC04F0C6
:10085000140E026E060E036E47EC04F01F0E026EBD
:10086000000E036E47EC04F0110E026E060E036ECE
:1008700047EC04F0020E1E6E040E1D6EBA0EE82E3A
:10088000FED71D2EFCD71E2EFAD700D0D1D7000ED2
:10089000076E000E066E1AD006500224046E075032
:1008A0000320056E04C0F6FF05C0F7FFF86A050EC9
:1008B000F76403D00800F55005D0F6CFD9FFF7CF85
:1008C000DAFFDF5097EC04F0064A072A06500224AC
:1008D000046E07500320056E04C0F6FF05C0F7FF45
:1008E000F86A050EF76403D00800F55005D0F6CF7E
:1008F000D9FFF7CFDAFFDF500009D8B41200CCD708
:10090000000E066E000E056E0BD005500124D96E48
:1009100006500220DA6EA2EC04F0DF6E054A062AC9
:100920000350055C04500658D8B01200EED7016E93
:10093000ACA2FED701C0ADFF1200000EF86E0001A0
:0C0940000CEF04F09EAAFED7AE5012008F
:020000040020DA
:08000000FFFFFFFFFFFFFFFF00
:020000040030CA
:0E000000FF02191EFF0281FF0FC00FE00F402C
:00000001FF
